:100000000C9463000C948B000C948B000C943007C0
:100010000C9430070C9430070C948B000C948B00DC
:100020000C948B000C948B000C948B000C94740635
:100030000C948B000C948B000C948B000C948B0014
:100040000C942A060C948B000C94F8050C94D205A1
:100050000C948B000C948B000C948B000C948B00F4
:100060000C948B000C948B000000000024002700EF
:100070002A0000000008000201000003040700003D
:1000800000000000000000000000230026002900FE
:1000900000000000250028002B00040404040404D0
:1000A0000404020202020202030303030303010227
:1000B00004081020408001020408102001020408F6
:1000C0001020ED07950B11241FBECFEFD8E0DEBF47
:1000D000CDBF11E0A0E0B1E0EEE2FDE102C005908D
:1000E0000D92AA3FB107D9F723E0AAEFB1E001C012
:1000F0001D92AD33B207E1F710E0C2E6D0E004C0D4
:100100002197FE010E94840EC136D107C9F70E94D3
:10011000B2080C948A0E0C9400008F929F92AF92BA
:10012000BF92FF920F931F93CF93DF93F0901B0327
:100130002BE02F1508F44CC020911D0308E512E0B8
:10014000021B110927FD1395000F111F000F111F2E
:1001500020911C03C8E8D0E0C21BD10927FDD3952C
:10016000CC0FDD1FCC0FDD1F4E010D2E000CAA0899
:10017000BB089801012E000C440B550B28193909B6
:100180004A095B09DC010E94DB0B24EB30E040E014
:1001900050E00E94B10B820E931EA41EB51E8C1659
:1001A0009D062CF0E801801691060CF4E4012297DC
:1001B000CC0FDD1F2FB7F8948F2D90E0FC01EE0FD0
:1001C000FF1FE80FF91FEA50FD4FD283C1832FBFF5
:1001D000DF91CF911F910F91FF90BF90AF909F90B3
:1001E0008F900895AF92BF92CF92DF92EF92FF92DD
:1001F0000F931F93CF93DF936C017B018B01040F4F
:10020000151FEB015E01AE18BF08C017D10759F0EA
:100210006991D601ED91FC910190F081E02DC6012C
:100220000995892B79F7C501DF91CF911F910F9126
:10023000FF90EF90DF90CF90BF90AF900895FC01BA
:10024000538D448D252F30E0842F90E0821B930B3B
:10025000541710F0CF96089501970895FC01918DE1
:10026000828D981761F0A28DAE0FBF2FB11D5D96E4
:100270008C91928D9F5F9F73928F90E008958FEF86
:100280009FEF0895FC01918D828D981731F0828D3A
:10029000E80FF11D858D90E008958FEF9FEF089591
:1002A000FC01918D228D892F90E0805C9F4F821BF5
:1002B00091098F739927089589E592E00E94500172
:1002C00021E0892B09F420E0822F089580E090E05E
:1002D000892B29F00E945C0181110C940000089583
:1002E000FC01A48DA80FB92FB11DA35ABF4F2C91AB
:1002F000848D90E001968F739927848FA689B789A2
:100300002C93A089B1898C91837080648C93938D98
:10031000848D981306C00288F389E02D80818F7D3B
:1003200080830895EF92FF920F931F93CF93DF93F3
:10033000EC0181E0888F9B8D8C8D98131AC0E88921
:10034000F989808185FF15C09FB7F894EE89FF89F0
:100350006083E889F98980818370806480839FBF8E
:1003600081E090E0DF91CF911F910F91FF90EF908E
:100370000895F62E0B8D10E00F5F1F4F0F7311279E
:10038000E02E8C8D8E110CC00FB607FCFACFE889D9
:10039000F989808185FFF5CFCE010E947001F1CFF0
:1003A000EB8DEC0FFD2FF11DE35AFF4FF0829FB74D
:1003B000F8940B8FEA89FB8980818062CFCFCF933D
:1003C000DF93EC01888D8823B9F0AA89BB89E8897D
:1003D000F9898C9185FD03C0808186FD0DC00FB623
:1003E00007FCF7CF8C9185FFF2CF808185FFEDCFA1
:1003F000CE010E947001E9CFDF91CF91089590E086
:10040000FC01EE58FF4F2491FC01E255FF4F34915F
:10041000FC01E656FF4FE491EE23C9F0222339F0A8
:10042000233001F1A8F4213019F1223029F1F0E054
:10043000EE0FFF1FE057FF4FA591B4918FB7F894CF
:10044000EC91611126C030953E233C938FBF0895F7
:100450002730A9F02830C9F0243049F78091800076
:100460008F7D03C0809180008F7780938000DFCFE5
:1004700084B58F7784BDDBCF84B58F7DFBCF809132
:10048000B0008F778093B000D2CF8091B0008F7D85
:10049000F9CF3E2BDACFCF93DF9390E0FC01E2550A
:1004A000FF4F249186569F4FFC0184918823D1F001
:1004B00090E0880F991FFC01E859FF4FA591B49176
:1004C000FC01E057FF4FC591D49161110EC09FB759
:1004D000F8948C91E22FE0958E238C932881E2236F
:1004E000E8839FBFDF91CF9108958FB7F894EC9187
:1004F000E22BEC938FBFF6CF1F93CF93DF93182F90
:10050000EB0161E00E944B02209739F460E0812FFB
:10051000DF91CF911F910C94FF01CF3FD10511F4D2
:1005200061E0F5CFE12FF0E0EE58FF4FE491E330CA
:1005300031F140F4E130B1F0E230E1F0C038D10502
:100540007CF7E4CFE73029F1E83059F1E430B1F736
:1005500080918000806280938000D0938B00C09354
:100560008A0004C084B5806884BDC7BDDF91CF9187
:100570001F91089584B5806284BDC8BDF7CF809176
:100580008000806880938000D0938900C0938800A9
:10059000EDCF8091B00080688093B000C093B3002D
:1005A000E5CF8091B00080628093B000C093B4002A
:1005B000DDCF3FB7F89480913C0290913D02A0912D
:1005C0003E02B0913F0226B5A89B05C02F3F19F00F
:1005D0000196A11DB11D3FBFBA2FA92F982F8827C3
:1005E000BC01CD01620F711D811D911D42E0660F9E
:1005F000771F881F991F4A95D1F708958F929F9270
:10060000AF92BF92CF92DF92EF92FF924B015C01CB
:100610000E94D9026B017C010E94D9026C197D09EC
:100620008E099F09683E734081059105A8F321E07A
:10063000821A9108A108B10888EEC80E83E0D81E7E
:10064000E11CF11C81149104A104B10429F7FF906D
:10065000EF90DF90CF90BF90AF909F908F900895D4
:1006600020914202309143022817390771F490918A
:10067000400280914102981741F0E0914002F0E081
:10068000E650FE4F808190E008958FEF9FEF089530
:100690000895EF92FF920F931F93CF93DF93DC01A6
:1006A0005C96ED90FC905D97E114F10479F481E0A3
:1006B00090E013969C938E93129790E080E0DF91E8
:1006C000CF911F910F91FF90EF9008955196ED916A
:1006D000FC91529750968C915097982F90950FB708
:1006E0005E962C915E97122F127021FD6095F89402
:1006F0002081112319F1282B2083E7012197F1F79D
:1007000028E0462F50E0308160FF1AC0382B30833C
:10071000E7012197F1F7BA0175956795215089F79F
:10072000112381F08081892380830FBF5C968D9196
:100730009C910197F1F781E090E0C1CF2923DCCFB4
:100740003923E5CF9081892BEFCF20914202309160
:1007500043022817390771F4809141022091400229
:1007600090E0805C9F4F821B910960E470E00E94E2
:100770005C0E089590E080E008952091420230914F
:10078000430228173907B9F4909140028091410241
:10079000981789F0E0914002F0E0E650FE4F80812A
:1007A0002091400230E02F5F3F4F2F73332720937B
:1007B000400290E008958FEF9FEF089590E080E071
:1007C0000895FC0101900020E9F73197AF01481B23
:1007D000590BBC0189E592E00C94F2008F929F9234
:1007E000AF92BF920F931F93CF93DF93CDB7DEB736
:1007F000A1970FB6F894DEBF0FBECDBF19A242304D
:1008000008F44AE08E010F5D1F4F842E912CB12C0D
:10081000A12CA50194010E94E30BE62FB901CA01A6
:10082000EA30F4F4E05DD801EE938D01232B242B04
:10083000252B79F790E080E0109719F0CD010E9408
:10084000E103A1960FB6F894DEBF0FBECDBFDF91D6
:10085000CF911F910F91BF90AF909F908F9008956F
:10086000E95CE1CFCF93DF930E94E103EC0185E2E5
:1008700091E00E94E1038C0F9D1FDF91CF910895BD
:1008800088E291E00E94320460E08CE00E94FF0167
:1008900060E08BE00E94FF0160E08AE00E94FF01BF
:1008A00060E089E00C94FF018DE291E00E94320447
:1008B00060E08CE00E94FF0161E08BE00E94FF019C
:1008C0006CEC70E08AE00E947C0260E089E00C94AD
:1008D000FF0182E391E00E9432046CEC70E08CE056
:1008E0000E947C0260E08BE00E94FF0160E08AE0F1
:1008F0000E94FF0161E089E00C94FF0187E391E031
:100900000E94320461E08CE00E94FF0160E08BE015
:100910000E94FF0161E08AE00E94FF0160E089E03F
:100920000C94FF018CE391E00E94320460E08CE0C3
:100930000E94FF0161E08BE00E94FF0160E08AE01D
:100940000E94FF0161E089E00C94FF01CF93DF93E7
:10095000682F89E592E00E949201EC0185E291E026
:100960000E94E1038C0F9D1FDF91CF91089588377E
:1009700031F48093000180E491E00C9432048835D6
:1009800029F4809300018EE691E0F7CF0C94A60441
:100990008F929F92AF92BF92CF92DF92EF92FF928F
:1009A0000F931F9360E086E00E94FF0183E090E0D8
:1009B0000197F1F761E086E00E94FF0183E290E099
:1009C0000197F1F760E086E00E94FF01E3EBF0E0C1
:1009D0006491EFE9F0E0E491F0E0EE0FFF1FEA57D9
:1009E000FF4F8591949100E412E42FE030E0462F10
:1009F0000E94A807611571058105910529F06F5FB7
:100A00007F4F8F4F9F4F9F700E94270D20E030E057
:100A100040E05FE30E94DE0D27EC3BE44BEE51E447
:100A20000E94860C60935002709351028093520290
:100A3000909353028BE991E00E94E103C090500231
:100A4000D0905102E0905202F0905302A70196011B
:100A5000C701B6010E944B0E882391F086EA91E00F
:100A60000E94E10385E291E01F910F91FF90EF90CA
:100A7000DF90CF90BF90AF909F908F900C94E10348
:100A800046015701E894B7F82FEF3FEF4FE75FE7D4
:100A9000C501B4010E944B0E81110DC02FEF3FEF35
:100AA0004FE75FE7C501B4010E94810C18161CF4E2
:100AB0008AEA91E0D5CF2FEF3FEF4FE75FE4C70120
:100AC000B6010E94D90D18161CF48EEA91E0C8CF29
:100AD0002FEF3FEF4FE75FECC701B6010E94810C9B
:100AE00087FDF3CF20E030E0A901C701B6010E94E5
:100AF000810C87FF09C06DE289E592E00E949201B6
:100B0000F7FAF094F7F8F0942AE037ED43EA5BE364
:100B1000C701B6010E94150C4B015C010E94F80C44
:100B20006B017C010E94270D9B01AC01C501B40142
:100B30000E94140C4B015C014AE0C701B6010E94FF
:100B4000EE036EE289E592E00E94920120E030E03F
:100B500040E251E4C501B4010E94DE0D4B015C018D
:100B60000E94F80C6B01F12CE12C4AE0C701B601A0
:100B70000E94EE03C701B6010E94270D9B01AC0144
:100B8000C501B4010E94140C20E030E040E251E4C1
:100B90000E94DE0D0E94F80C90E080E04AE00E9486
:100BA000EE0360CF1F920F920FB60F9211242F9376
:100BB0003F934F935F936F937F938F939F93AF93E5
:100BC000BF93EF93FF9389E592E00E947001FF913C
:100BD000EF91BF91AF919F918F917F916F915F91B5
:100BE0004F913F912F910F900FBE0F901F9018952E
:100BF0001F920F920FB60F9211242F938F939F93F2
:100C0000EF93FF93E0916902F0916A028081E09195
:100C10006F02F091700282FD1BC090818091720280
:100C20008F5F8F7320917302821741F0E0917202FF
:100C3000F0E0E75AFD4F958F80937202FF91EF919C
:100C40009F918F912F910F900FBE0F901F9018952D
:100C50008081F4CF1F920F920FB60F9211242F9321
:100C60003F938F939F93AF93BF9380914402909152
:100C70004502A0914602B091470230913B0223E029
:100C8000230F2D3758F50196A11DB11D20933B026E
:100C90008093440290934502A0934602B09347028A
:100CA00080913C0290913D02A0913E02B0913F02A2
:100CB0000196A11DB11D80933C0290933D02A0932B
:100CC0003E02B0933F02BF91AF919F918F913F91B0
:100CD0002F910F900FBE0F901F90189526E8230FAD
:100CE0000296A11DB11DD2CF1F920F920FB60F9287
:100CF00011242F933F934F935F936F937F938F9321
:100D00009F93AF93BF93CF93DF93EF93FF93809124
:100D10003A02C0911A03D0E087FF24C010928500E8
:100D20001092840080913A028F5F80933A02809102
:100D30003A02082E000C990B8C179D0724F4809121
:100D40003A028C30C4F18091840090918500049621
:100D500080349C4908F47AC0809184009091850089
:100D6000049676C080913A02082E000C990B8C17DD
:100D70009D07C4F6E0913A028E2FEE0F990BFC010D
:100D8000EE0FFF1FE80FF91FEA50FD4F808186FF2D
:100D9000C9CFE0913A028E2FEE0F990BFC01EE0FB6
:100DA000FF1FE80FF91FEA50FD4F808160E08F734D
:100DB0000E94FF01B7CF2091840030918500E0911F
:100DC0003A028E2FEE0F990BFC01EE0FFF1FE80F7A
:100DD000F91FEA50FD4F81819281820F931F9093FA
:100DE000890080938800E0913A028E2FEE0F990BD4
:100DF000FC01EE0FFF1FE80FF91FEA50FD4F808145
:100E000086FF11C0E0913A028E2FEE0F990BFC0184
:100E1000EE0FFF1FE80FF91FEA50FD4F808161E0E0
:100E20008F730E94FF01FF91EF91DF91CF91BF91EE
:100E3000AF919F918F917F916F915F914F913F9172
:100E40002F910F900FBE0F901F90189580E49CE992
:100E500090938900809388008FEF80933A02E3CFCC
:100E60001F920F920FB60F9211242F933F934F931F
:100E70005F936F937F938F939F93AF93BF93EF9302
:100E8000FF93E0914202F0914302309749F0A6852A
:100E9000B7858585968D91FF14C09C918923A1F417
:100EA000FF91EF91BF91AF919F918F917F916F9142
:100EB0005F914F913F912F910F900FBE0F901F9018
:100EC00018959C91892361F7A389B4899C918589A0
:100ED000809589238C93868997890197F1F7608D96
:100EE000718DA685B785558538E020E0CB01019747
:100EF000F1F7822F90E095958795282F4C91452307
:100F000009F02068315091F7868D81FD2095809100
:100F1000410290E001968F73992730914002381773
:100F200099F0A0914102B0E0A650BE4F2C9380935F
:100F30004102828D938D0197F1F7A389B4898C9139
:100F40009589892B8C93ACCF868D8160868FF1CF6C
:100F5000CF92DF92EF92FF920F931F93E82FF92F1A
:100F600005C0015011092109310961F190819623D1
:100F70009417B9F305C0015011092109310911F184
:100F8000908196239413F7CFC12CD12CE12CF12C16
:100F90000AC08FEFC81AD80AE80AF80A0C151D050E
:100FA0002E053F0579F080818623841791F36C2DFF
:100FB0007D2D8E2D9F2D1F910F91FF90EF90DF9033
:100FC000CF90089560E070E080E090E01F910F9175
:100FD000FF90EF90DF90CF90089510925C021092F6
:100FE0005B0288EE93E0A0E0B0E080935D02909316
:100FF0005E02A0935F02B093600225E031E030937F
:101000005A022093590225EC30E030936602209377
:10101000650224EC30E0309368022093670220ECF4
:1010200030E030936A022093690221EC30E0309383
:101030006C0220936B0222EC30E030936E0220931E
:101040006D0226EC30E03093700220936F02109214
:101050007202109273021092740210927502109232
:101060002103109220038093220390932303A093E3
:101070002403B093250387E191E090931F038093AD
:101080001E0310923503109234031092370310920E
:101090003603109239031092380310923B031092DA
:1010A0003A0360913C036E7F6D7F60933C036695CD
:1010B000617081E0682783E00E94FF0161E083E0C6
:1010C0000E944B02E1EBF0E0E491E0932E03EDE9A6
:1010D000F0E0E491F0E0EE0FFF1FE057FF4F859145
:1010E00094919093300380932F0360E084E00E94FA
:1010F0004B0280913C0381FD04C061E084E00E94CA
:10110000FF0184E080932A03E2EBF0E0E491E093B6
:101110002B03EEE9F0E0E491F0E0EE0FFF1FEA5759
:10112000FF4F8591949190932D0380932C03809190
:101130001A038C3098F491E0980F90931A038093DF
:101140001B0390E0FC01EE0FFF1FE80FF91FEA50B0
:10115000FD4F88EB9BE09283818308958FEF80930E
:101160001B030895789484B5826084BD84B5816042
:1011700084BD85B5826085BD85B5816085BD809162
:101180006E00816080936E001092810080918100DA
:1011900082608093810080918100816080938100D2
:1011A000809180008160809380008091B100846094
:1011B0008093B1008091B00081608093B0008091F5
:1011C0007A00846080937A0080917A0082608093B4
:1011D0007A0080917A00816080937A0080917A0011
:1011E000806880937A001092C100E0916902F091CA
:1011F0006A0282E08083E0916502F09166021082CB
:10120000E0916702F09168028FEC80831092710286
:10121000E0916D02F0916E0286E08083E0916B02B6
:10122000F0916C02808180618083E0916B02F0918B
:101230006C02808188608083E0916B02F0916C0287
:10124000808180688083E0916B02F0916C028081E4
:101250008F7D8083109239031092380310923703E8
:101260001092360310923503109234038DE991E009
:1012700090933B0380933A0390912A03963108F0B0
:1012800047C02DEB30E030933503209334032BE936
:1012900031E030933703209336032CE231E0309372
:1012A0003903209338032091680084E0983048F097
:1012B00031E09E3008F430E081E001C0880F3A95BB
:1012C000EAF7822B809368002DE630E0983050F0EA
:1012D0002BE630E09E3030F02CE630E0963110F016
:1012E00030E020E03093320320933103292F30E0A7
:1012F000983008F0E8C081E001C0880F9A95EAF7BD
:101300008093330380913A0390913B030197F1F767
:101310008091380390913903892B49F1E091420281
:10132000F091430223E0EE31F20709F1309739F0F2
:10133000A389B4899C918589809589238C93809118
:101340003C038E7F80933C03109241021092400236
:101350008EE193E09093430280934202E091310347
:10136000F0913203808190913303892B808361E077
:101370008CE00E944B0261E08BE00E944B0261E036
:101380008AE00E944B0261E089E00E944B0261E02A
:1013900086E00E944B0260E085E00E944B02809153
:1013A0001B038C3008F051C061E087E00E944B02C3
:1013B00080911B03282F30E0F901EE0FFF1FE20F91
:1013C000F31FEA50FD4F9081907C976090831092BC
:1013D0001C0310921D032CE0622F0E94500E829F6E
:1013E000B001112430E020E0AB01420F531FFA019D
:1013F000EE0FFF1FE40FF51FEA50FD4F908196FDA1
:1014000016C02F5F3F4F2C30310571F781110FC08F
:101410001092800082E080938100109285001092EB
:101420008400B19A80916F00826080936F00E09198
:101430001B038E2F90E0FC01EE0FFF1FE80FF91F3A
:10144000EA50FD4F8081806480838AE590E00E94AD
:101450008D008FB7F89440914402509145026091FD
:101460004602709147028FBF00E010E08EE193E0EA
:101470000E94A503892B31F08EE193E00E94BD0309
:101480000E94B704809100018837E1F582EB91E07A
:101490000E9432048EE193E00E94A503892B91F112
:1014A0008EE193E00E94BD03809358020E94A6043F
:1014B000809158028634E1F09CF4823409F46AC0C9
:1014C0000E94400417C09E3040F42850310981E04A
:1014D00001C0880F2A95EAF713CF2E503109F7CFB4
:1014E0008C3409F45AC0823559F70E94540402C062
:1014F0000E947E048FEB91E00E94E1038091000145
:101500000E94A60480910001883509F069C089EC29
:1015100091E00E9432042FB7F89480914402909198
:101520004502A0914602B09147022FBF409154025C
:101530005091550260915602709157026C017D01E5
:10154000C41AD50AE60AF70AB701A601483E534075
:101550006105710528F18093540290935502A09380
:101560005602B09357028EE193E00E94A503892BA7
:10157000B9F08EE193E00E94BD03C82F833599F343
:101580000E94B70487ED91E00E94E1038C2F0E9436
:10159000A604E9CF0E949204ADCF0E946904AACFAD
:1015A0000E94C80420E030E048EC51E46091500211
:1015B0007091510280915202909153020E94D90D74
:1015C0001816D4F40E947E0487EE91E00E94320443
:1015D0008FEB91E00E94E103809100010E94A6043C
:1015E0000115110509F442CF0E945C01882309F41A
:1015F0003DCF0E9400003ACF0E94400482E390E079
:101600000E948D0068EC70E080E090E00E94FE0295
:101610000E94C8048AE590E00E948D0080915002EB
:1016200090915102A0915202B091530280934C02CA
:1016300090934D02A0934E02B0934F0286E990E042
:101640000E948D0068EC70E080E090E00E94FE0255
:101650000E94C8048AE590E00E948D00C09050026C
:10166000D0905102E0905202F0905302C092480292
:10167000D0924902E0924A02F0924B0280904C02D2
:1016800090904D02A0904E02B0904F0220E030E0CA
:1016900040E751E4C501B4010E94810C87FF17C0E7
:1016A00020E030E040E751E4C701B6010E94810C20
:1016B00087FF0DC00E9492048CEE91E00E943204DC
:1016C00064E670E080E090E00E94FE0281CFA50118
:1016D0009401C701B6010E94D90D181664F40E9446
:1016E000540480EF91E00E94320464E670E080E0F0
:1016F00090E00E94FE022091480230914902409100
:101700004A0250914B0260914C0270914D028091BF
:101710004E0290914F020E94D90D18160CF058CF2E
:101720000E94690485EF91E0C9CF87E191E0909331
:101730001F0380931E0380914202909143028E51B9
:10174000934071F4E0913103F091320390818091E4
:1017500033038095892380831092430210924202C2
:101760000895052E97FB1EF400940E94C80B57FDA8
:1017700007D00E94E30B07FC03D04EF40C94C80B77
:1017800050954095309521953F4F4F4F5F4F0895AD
:1017900090958095709561957F4F8F4F9F4F0895DD
:1017A0000E94050CA59F900DB49F900DA49F800DE5
:1017B000911D11240895B7FF0C94D00B0E94D00BFB
:1017C000821B930B0895A1E21A2EAA1BBB1BFD01DD
:1017D0000DC0AA1FBB1FEE1FFF1FA217B307E40710
:1017E000F50720F0A21BB30BE40BF50B661F771F68
:1017F000881F991F1A9469F7609570958095909548
:101800009B01AC01BD01CF010895A29FB001B39F20
:10181000C001A39F700D811D1124911DB29F700DF9
:10182000811D1124911D08955058BB27AA270E949D
:101830002C0C0C949F0D0E94910D38F00E94980D75
:1018400020F039F49F3F19F426F40C948E0D0EF419
:10185000E095E7FB0C94880DE92F0E94B00D58F33A
:10186000BA17620773078407950720F079F4A6F585
:101870000C94D20D0EF4E0950B2EBA2FA02D0B0177
:10188000B90190010C01CA01A0011124FF27591BC5
:1018900099F0593F50F4503E68F11A16F040A22FCB
:1018A000232F342F4427585FF3CF4695379527953C
:1018B000A795F0405395C9F77EF41F16BA0B620B3B
:1018C000730B840BBAF09150A1F0FF0FBB1F661F82
:1018D000771F881FC2F70EC0BA0F621F731F841FC5
:1018E00048F4879577956795B795F7959E3F08F0EB
:1018F000B0CF9395880F08F09927EE0F97958795AD
:1019000008950E94640D08F481E008950E949A0CE5
:101910000C949F0D0E94980D58F00E94910D40F07C
:1019200029F45F3F29F00C94880D51110C94D30DCC
:101930000C948E0D0E94B00D68F39923B1F35523DA
:1019400091F3951B550BBB27AA27621773078407D2
:1019500038F09F5F5F4F220F331F441FAA1FA9F368
:1019600035D00E2E3AF0E0E832D091505040E69556
:10197000001CCAF72BD0FE2F29D0660F771F881FB7
:10198000BB1F261737074807AB07B0E809F0BB0BAA
:10199000802DBF01FF2793585F4F3AF09E3F5105BE
:1019A00078F00C94880D0C94D30D5F3FE4F3983ECF
:1019B000D4F3869577956795B795F7959F5FC9F7A7
:1019C000880F911D9695879597F90895E1E0660F28
:1019D000771F881FBB1F621773078407BA0720F0A1
:1019E000621B730B840BBA0BEE1F88F7E09508950A
:1019F0000E94B80D88F09F5798F0B92F9927B751DA
:101A0000B0F0E1F0660F771F881F991F1AF0BA95A2
:101A1000C9F714C0B13091F00E94D20DB1E0089521
:101A20000C94D20D672F782F8827B85F39F0B93F13
:101A3000CCF3869577956795B395D9F73EF4909555
:101A40008095709561957F4F8F4F9F4F0895E894D3
:101A500009C097FB3EF490958095709561957F4FF6
:101A60008F4F9F4F9923A9F0F92F96E9BB279395A4
:101A7000F695879577956795B795F111F8CFFAF4B4
:101A8000BB0F11F460FF1BC06F5F7F4F8F4F9F4FE5
:101A900016C0882311F096E911C0772321F09EE843
:101AA000872F762F05C0662371F096E8862F70E0A9
:101AB00060E02AF09A95660F771F881FDAF7880F83
:101AC0009695879597F90895990F0008550FAA0BD9
:101AD000E0E8FEEF16161706E807F907C0F0121641
:101AE0001306E407F50798F0621B730B840B950B44
:101AF00039F40A2661F0232B242B252B21F4089599
:101B00000A2609F4A140A6958FEF811D811D089535
:101B100097F99F6780E870E060E008959FEF80ECA0
:101B2000089500240A941616170618060906089543
:101B300000240A9412161306140605060895092EA9
:101B40000394000C11F4882352F0BB0F40F4BF2B18
:101B500011F460FF04C06F5F7F4F8F4F9F4F089558
:101B600057FD9058440F551F59F05F3F71F047954E
:101B7000880F97FB991F61F09F3F79F08795089533
:101B8000121613061406551FF2CF4695F1DF08C052
:101B9000161617061806991FF1CF8695710561056F
:101BA00008940895E894BB2766277727CB0197F917
:101BB00008950E94640D08F48FEF08950E94F10DBE
:101BC0000C949F0D0E94910D38F00E94980D20F00A
:101BD000952311F00C94880D0C948E0D11240C9407
:101BE000D30D0E94B00D70F3959FC1F3950F50E097
:101BF000551F629FF001729FBB27F00DB11D639FBF
:101C0000AA27F00DB11DAA1F649F6627B00DA11D64
:101C1000661F829F2227B00DA11D621F739FB00D0A
:101C2000A11D621F839FA00D611D221F749F33277A
:101C3000A00D611D231F849F600D211D822F762F13
:101C40006A2F11249F5750409AF0F1F088234AF0F0
:101C5000EE0FFF1FBB1F661F771F881F915050405C
:101C6000A9F79E3F510580F00C94880D0C94D30D7C
:101C70005F3FE4F3983ED4F3869577956795B795E3
:101C8000F795E7959F5FC1F7FE2B880F911D9695FD
:101C9000879597F908950E94640D880B990B089514
:101CA000991B79E004C0991F961708F0961B881FAE
:101CB0007A95C9F78095089597FB072E16F400943E
:101CC00007D077FD09D00E94700E07FC05D03EF4C6
:101CD000909581959F4F0895709561957F4F0895D8
:101CE000AA1BBB1B51E107C0AA1FBB1FA617B70742
:101CF00010F0A61BB70B881F991F5A95A9F780955E
:101D00009095BC01CD010895EE0FFF1F0590F49151
:101D1000E02D099410E0C2E6D0E004C0FE010E946C
:0E1D2000840E2196C336D107C9F7F894FFCF81
:101D2E0078000000009201F2001F01DF0150012E29
:101D3E00014201000000004903F200DE034803A542
:101D4E0003BD0330030D0A0064756E670070686191
:101D5E00690074726169007469656E006C75690062
:101D6E004368E1BABF20C491E1BB9920C49169E1F7
:101D7E00BB8175206B6869E1BB836E207468C3B448
:101D8E006E67207468C6B0E1BB9D6E672E00436817
:101D9E00E1BABF20C491E1BB992074E1BBB120C46C
:101DAE0091E1BB996E67207472C3A16E682076E1D3
:101DBE00BAAD742063E1BAA36E2E004469737461E8
:101DCE006E63653A20006E616E00696E66006F7616
:101DDE00660074686F6E67207468756F6E67004D6D
:101DEE006F6465206E6F773A007472616E6820764C
:101DFE0061742063616E00636F6D6D616E64206847
:101E0E00616E646C653A005469656E004C756900CC
:0A1E1E0050686169005472616900A8
:00000001FF
