:020000040000FA
:100000000C9463000C948B000C948B000C94EB0606
:100010000C94EB060C94EB060C948B000C940A06E3
:100020000C948B000C948B000C948B000C942F067A
:100030000C948B000C948B000C948B000C948B0014
:100040000C94C0050C948B000C948E050C946805E0
:100050000C948B000C948B000C948B000C948B00F4
:100060000C948B000C948B0000000008000201002F
:100070000003040700000000000000000000000072
:10008000240027002A000000000023002600290089
:1000900000000000250028002B00040404040404D0
:1000A0000404020202020202030303030303010227
:1000B00004081020408001020408102001020408F6
:1000C00010206307910B11241FBECFEFD8E0DEBFD5
:1000D000CDBF11E0A0E0B1E0EEEAF8E102C005908A
:1000E0000D92AE38B107D9F722E0AEE8B1E001C019
:1000F0001D92AE3DB207E1F710E0C2E6D0E004C0C9
:100100002197FE010E94440CC136D107C9F70E9415
:1001100078080C944A0C0C9400008F929F92AF9236
:10012000BF92FF920F931F93CF93DF93F090DB0268
:100130002BE02F1508F44CC02091DD0208E512E0F9
:10014000021B110927FD1395000F111F000F111F2E
:100150002091DC02C8E8D0E0C21BD10927FDD3956D
:10016000CC0FDD1FCC0FDD1F4E010D2E000CAA0899
:10017000BB089801012E000C440B550B28193909B6
:100180004A095B09DC010E94D70B24EB30E040E018
:1001900050E00E94AD0B820E931EA41EB51E8C165D
:1001A0009D062CF0E801801691060CF4E4012297DC
:1001B000CC0FDD1F2FB7F8948F2D90E0FC01EE0FD0
:1001C000FF1FE80FF91FEC57FD4FD283C1832FBFEC
:1001D000DF91CF911F910F91FF90BF90AF909F90B3
:1001E0008F900895AF92BF92CF92DF92EF92FF92DD
:1001F0000F931F93CF93DF936C017B018B01040F4F
:10020000151FEB015E01AE18BF08C017D10759F0EA
:100210006991D601ED91FC910190F081E02DC6012C
:100220000995892B79F7C501DF91CF911F910F9126
:10023000FF90EF90DF90CF90BF90AF900895FC01BA
:10024000538D448D252F30E0842F90E0821B930B3B
:10025000541710F0CF96089501970895FC01918DE1
:10026000828D981761F0A28DAE0FBF2FB11D5D96E4
:100270008C91928D9F5F9F73928F90E008958FEF86
:100280009FEF0895FC01918D828D981731F0828D3A
:10029000E80FF11D858D90E008958FEF9FEF089591
:1002A000FC01918D228D892F90E0805C9F4F821BF5
:1002B00091098F739927089587EE91E00E9450016C
:1002C00021E0892B09F420E0822F089580E090E05E
:1002D000892B29F00E945C0181110C940000089583
:1002E000FC01A48DA80FB92FB11DA35ABF4F2C91AB
:1002F000848D90E001968F739927848FA689B789A2
:100300002C93A089B1898C91837080648C93938D98
:10031000848D981306C00288F389E02D80818F7D3B
:1003200080830895EF92FF920F931F93CF93DF93F3
:10033000EC0181E0888F9B8D8C8D98131AC0E88921
:10034000F989808185FF15C09FB7F894EE89FF89F0
:100350006083E889F98980818370806480839FBF8E
:1003600081E090E0DF91CF911F910F91FF90EF908E
:100370000895F62E0B8D10E00F5F1F4F0F7311279E
:10038000E02E8C8D8E110CC00FB607FCFACFE889D9
:10039000F989808185FFF5CFCE010E947001F1CFF0
:1003A000EB8DEC0FFD2FF11DE35AFF4FF0829FB74D
:1003B000F8940B8FEA89FB8980818062CFCFCF933D
:1003C000DF93EC01888D8823B9F0AA89BB89E8897D
:1003D000F9898C9185FD03C0808186FD0DC00FB623
:1003E00007FCF7CF8C9185FFF2CF808185FFEDCFA1
:1003F000CE010E947001E9CFDF91CF91089590E086
:10040000FC01E859FF4F2491FC01E255FF4F349164
:10041000FC01E656FF4FE491EE23C9F0222339F0A8
:10042000233001F1A8F4213019F1223029F1F0E054
:10043000EE0FFF1FE057FF4FA591B4918FB7F894CF
:10044000EC91611126C030953E233C938FBF0895F7
:100450002730A9F02830C9F0243049F78091800076
:100460008F7D03C0809180008F7780938000DFCFE5
:1004700084B58F7784BDDBCF84B58F7DFBCF809132
:10048000B0008F778093B000D2CF8091B0008F7D85
:10049000F9CF3E2BDACFCF93DF9390E0FC01E2550A
:1004A000FF4F249186569F4FFC0184918823D1F001
:1004B00090E0880F991FFC01E458FF4FA591B4917B
:1004C000FC01E057FF4FC591D49161110EC09FB759
:1004D000F8948C91E22FE0958E238C932881E2236F
:1004E000E8839FBFDF91CF9108958FB7F894EC9187
:1004F000E22BEC938FBFF6CF1F93CF93DF93182F90
:10050000EB0161E00E944B02209739F460E0812FFB
:10051000DF91CF911F910C94FF01CF3FD10511F4D2
:1005200061E0F5CFE12FF0E0E859FF4FE491E330CF
:1005300031F140F4E130B1F0E230E1F0C038D10502
:100540007CF7E4CFE73029F1E83059F1E430B1F736
:1005500080918000806280938000D0938B00C09354
:100560008A0004C084B5806884BDC7BDDF91CF9187
:100570001F91089584B5806284BDC8BDF7CF809176
:100580008000806880938000D0938900C0938800A9
:10059000EDCF8091B00080688093B000C093B3002D
:1005A000E5CF8091B00080628093B000C093B4002A
:1005B000DDCF3FB7F8948091D8019091D901A091F7
:1005C000DA01B091DB0126B5A89B05C02F3F19F0D9
:1005D0000196A11DB11D3FBFBA2FA92F982F8827C3
:1005E000BC01CD01620F711D811D911D42E0660F9E
:1005F000771F881F991F4A95D1F708958F929F9270
:10060000AF92BF92CF92DF92EF92FF924B015C01CB
:100610000E94D9026B017C010E94D9026C197D09EC
:100620008E099F09683E734081059105A8F321E07A
:10063000821A9108A108B10888EEC80E83E0D81E7E
:10064000E11CF11C81149104A104B10429F7FF906D
:10065000EF90DF90CF90BF90AF909F908F900895D4
:100660002091DE013091DF012817390771F4909154
:10067000DC018091DD01981741F0E091DC01F0E0B0
:10068000EE56FE4F808190E008958FEF9FEF089522
:100690000895EF92FF920F931F93CF93DF93DC01A6
:1006A0005C96ED90FC905D97E114F10479F481E0A3
:1006B00090E013969C938E93129790E080E0DF91E8
:1006C000CF911F910F91FF90EF9008955196ED916A
:1006D000FC91529750968C915097982F90950FB708
:1006E0005E962C915E97122F127021FD6095F89402
:1006F0002081112319F1282B2083E7012197F1F79D
:1007000028E0462F50E0308160FF1AC0382B30833C
:10071000E7012197F1F7BA0175956795215089F79F
:10072000112381F08081892380830FBF5C968D9196
:100730009C910197F1F781E090E0C1CF2923DCCFB4
:100740003923E5CF9081892BEFCF2091DE013091C5
:10075000DF012817390771F48091DD012091DC0158
:1007600090E0805C9F4F821B910960E470E00E94E2
:100770001C0C089590E080E008952091DE013091F6
:10078000DF0128173907B9F49091DC018091DD0170
:10079000981789F0E091DC01F0E0EE56FE4F808181
:1007A0002091DC0130E02F5F3F4F2F7333272093E0
:1007B000DC0190E008958FEF9FEF089590E080E0D6
:1007C00008950F931F9366E470E080E090E00E942C
:1007D000FE02E091B302F091B40280819091AD02EB
:1007E000892B8083E091AF02F091B00280819091DB
:1007F000AD02892B80838BE290E00197F1F7E091C5
:10080000AF02F091B00290818091AD028095892372
:1008100080838091BB02882351F0E091B302F09174
:10082000B40290818091AD02809589238083E0910C
:10083000B102F091B20280819091AE02892399F0C9
:1008400090E080E0BC0190E080E029E330E040E00F
:1008500050E00E94DF0BC901009711F48AEF90E08D
:100860001F910F9108950E94D902AB01BC018091A4
:10087000B5029091B602B0E0A0E08855994EAF4F16
:10088000BF4F840F951FA61FB71F8093B702909389
:10089000B802A093B902B093BA02E091B102F0910C
:1008A000B20280819091AE02892381F40E94D90224
:1008B0000091B7021091B8022091B9023091BA02AA
:1008C000061717072807390740F7BACF0E94D90241
:1008D0002091B5023091B602620F731F811D911DE8
:1008E0006093B7027093B8028093B9029093BA02F2
:1008F000E091B102F091B20280819091AE02892321
:1009000081F00E94D9020091B7021091B8022091A3
:10091000B9023091BA02061717072807390740F7BE
:100920008FCF0E94D9022091B5023091B602A90161
:10093000455051092091B7023091B802FA01E21BEB
:10094000F30BCF01860F971F7DCFFC010190002094
:10095000E9F73197AF01481B590BBC0187EE91E0D5
:100960000C94F2008F929F92AF92BF920F931F93BD
:10097000CF93DF93CDB7DEB7A1970FB6F894DEBF64
:100980000FBECDBF19A2423008F44AE08E010F5DC0
:100990001F4F842E912CB12CA12CA50194010E94F3
:1009A000DF0BE62FB901CA01EA30F4F4E05DD801AB
:1009B000EE938D01232B242B252B79F790E080E0FB
:1009C000109719F0CD010E94A504A1960FB6F894D6
:1009D000DEBF0FBECDBFDF91CF911F910F91BF90B2
:1009E000AF909F908F900895E95CE1CFCF93DF9314
:1009F0000E94A504EC0184E291E00E94A5048C0F02
:100A00009D1FDF91CF91089587E291E00E94F60447
:100A100060E08CE00E94FF0160E08BE00E94FF013B
:100A200060E08AE00E94FF0160E089E00C94FF0131
:100A300080E391E00E94F60460E08CE00E94FF01F8
:100A400061E08BE00E94FF0161E08AE00E94FF010B
:100A500060E089E00C94FF0185E391E00E94F604D8
:100A600061E08CE00E94FF0160E08BE00E94FF01EA
:100A700060E08AE00E94FF0161E089E00C94FF01E0
:100A80008AE391E00E94F60460E08CE00E94FF019E
:100A900061E08BE00E94FF0160E08AE00E94FF01BC
:100AA00061E089E00C94FF018EE391E00E94F6047E
:100AB00061E08CE00E94FF0160E08BE00E94FF019A
:100AC00061E08AE00E94FF0160E089E00C94FF0190
:100AD0001F920F920FB60F9211242F933F934F93B3
:100AE0005F936F937F938F939F93AF93BF93EF9396
:100AF000FF9387EE91E00E947001FF91EF91BF910B
:100B0000AF919F918F917F916F915F914F913F91A5
:100B10002F910F900FBE0F901F9018951F920F925C
:100B20000FB60F9211242F938F939F93EF93FF9300
:100B3000E091F701F091F8018081E091FD01F091E1
:100B4000FE0182FD1BC09081809100028F5F8F7338
:100B500020910102821741F0E0910002F0E0E9519A
:100B6000FE4F958F80930002FF91EF919F918F919F
:100B70002F910F900FBE0F901F9018958081F4CF8A
:100B80001F920F920FB60F9211242F933F938F93C2
:100B90009F93AF93BF938091D4019091D501A09181
:100BA000D601B091D7013091D30123E0230F2D3727
:100BB00058F50196A11DB11D2093D3018093D40156
:100BC0009093D501A093D601B093D7018091D8011D
:100BD0009091D901A091DA01B091DB010196A11D9C
:100BE000B11D8093D8019093D901A093DA01B093FD
:100BF000DB01BF91AF919F918F913F912F910F900A
:100C00000FBE0F901F90189526E8230F0296A11D86
:100C1000B11DD2CF1F920F920FB60F9211242F93B6
:100C20003F934F935F936F937F938F939F93AF9374
:100C3000BF93EF93FF93F0E0E0E00995FF91EF9110
:100C4000BF91AF919F918F917F916F915F914F91E4
:100C50003F912F910F900FBE0F901F9018951F92EC
:100C60000F920FB60F9211242F933F934F935F93E0
:100C70006F937F938F939F93AF93BF93CF93DF93A4
:100C8000EF93FF938091D201C091A802D0E087FF3B
:100C900024C010928500109284008091D2018F5F51
:100CA0008093D2018091D201082E000C990B8C17F1
:100CB0009D0724F48091D2018C30C4F1809184008E
:100CC00090918500049680349C4908F47AC0809104
:100CD000840090918500049676C08091D201082E00
:100CE000000C990B8C179D07C4F6E091D2018E2F52
:100CF000EE0F990BFC01EE0FFF1FE80FF91FEC57E9
:100D0000FD4F808186FFC9CFE091D2018E2FEE0F7B
:100D1000990BFC01EE0FFF1FE80FF91FEC57FD4F79
:100D2000808160E08F730E94FF01B7CF2091840023
:100D300030918500E091D2018E2FEE0F990BFC01CE
:100D4000EE0FFF1FE80FF91FEC57FD4F81819281D5
:100D5000820F931F9093890080938800E091D201C5
:100D60008E2FEE0F990BFC01EE0FFF1FE80FF91FFE
:100D7000EC57FD4F808186FF11C0E091D2018E2F8C
:100D8000EE0F990BFC01EE0FFF1FE80FF91FEC5758
:100D9000FD4F808161E08F730E94FF01FF91EF9111
:100DA000DF91CF91BF91AF919F918F917F916F9183
:100DB0005F914F913F912F910F900FBE0F901F9019
:100DC000189580E49CE990938900809388008FEFC8
:100DD0008093D201E3CF1F920F920FB60F9211248E
:100DE0002F933F934F935F936F937F938F939F9333
:100DF000AF93BF93EF93FF93E091DE01F091DF019A
:100E0000309749F0A685B7858585968D91FF14C0EA
:100E10009C918923A1F4FF91EF91BF91AF919F9194
:100E20008F917F916F915F914F913F912F910F9093
:100E30000FBE0F901F9018959C91892361F7A3898D
:100E4000B4899C918589809589238C93868997891B
:100E50000197F1F7608D718DA685B785558538E0CE
:100E600020E0CB010197F1F7822F90E095958795CF
:100E7000282F4C91452309F02068315091F7868D39
:100E800081FD20958091DD0190E001968F73992777
:100E90003091DC01381799F0A091DD01B0E0AE5639
:100EA000BE4F2C938093DD01828D938D0197F1F7D6
:100EB000A389B4898C919589892B8C93ACCF868D2D
:100EC0008160868FF1CF1092EA011092E90188EEDD
:100ED00093E0A0E0B0E08093EB019093EC01A0934D
:100EE000ED01B093EE0184E091E09093E8018093EE
:100EF000E70185EC90E09093F4018093F30184EC9A
:100F000090E09093F6018093F50180EC90E090934F
:100F1000F8018093F70181EC90E09093FA018093BF
:100F2000F90182EC90E09093FC018093FB0186EC48
:100F300090E09093FE018093FD01109200021092C8
:100F4000010210920202109203028091A8028C30DA
:100F500008F0CAC091E0980F9093A8028093DB023A
:100F600090E0FC01EE0FFF1FE80FF91FEC57FD4F5B
:100F700088EB9BE0928381831092BF021092BE02A5
:100F800088EE93E0A0E0B0E08093C0029093C102AD
:100F9000A093C202B093C30286E191E09093BD0298
:100FA0008093BC021092D3021092D2021092D5020A
:100FB0001092D4021092D7021092D6021092D90247
:100FC0001092D8026091DA026E7F6D7F6093DA0230
:100FD0006695617081E0682783E00E94FF0161E00F
:100FE00083E00E944B02E1EBF0E0E491E093CC025D
:100FF000EDE9F0E0E491F0E0EE0FFF1FE057FF4F66
:10100000859194919093CE028093CD0260E084E02C
:101010000E944B028091DA0281FD04C061E084E00D
:101020000E94FF0184E08093C802E2EBF0E0E491CB
:10103000E093C902EEE9F0E0E491F0E0EE0FFF1F6B
:10104000EA57FF4F859194919093CB028093CA0207
:10105000E4EBF0E024912093AD02E3EBF0E0E491C7
:10106000E093AE0280EA90E0FC013491E32FF0E0DF
:10107000EE0FFF1FE057FF4F459154915093B00280
:101080004093AF02EFE9F0E0E491F0E0EE0FFF1FD4
:10109000EA57FF4F459154915093B2024093B102E9
:1010A000FC018491E82FF0E0EE0FFF1FE458FF4FA2
:1010B000A591B491B093B402A093B3021092BB0275
:1010C00081EC9CE29093B6028093B502EC912E2BBA
:1010D0002C93E091AF02F091B00290818091AD022B
:1010E00080958923808308958FEF8093DB0244CF1E
:1010F000789484B5826084BD84B5816084BD85B5F3
:10110000826085BD85B5816085BD80916E008160FE
:1011100080936E00109281008091810082608093A4
:1011200081008091810081608093810080918000A6
:101130008160809380008091B10084608093B100D1
:101140008091B00081608093B00080917A008460CB
:1011500080937A0080917A00826080937A008091F7
:101160007A00816080937A0080917A008068809311
:101170007A001092C1001092D7021092D6021092FB
:10118000D5021092D4021092D3021092D2028DE9AD
:1011900091E09093D9028093D8029091C802963141
:1011A00008F047C02DEB30E03093D3022093D202F9
:1011B0002BE931E03093D5022093D4022CE231E0C8
:1011C0003093D7022093D6022091680084E09830B3
:1011D00048F031E09E3008F430E081E001C0880F33
:1011E0003A95EAF7822B809368002DE630E098303C
:1011F00050F02BE630E09E3030F02CE630E09631B7
:1012000010F030E020E03093D0022093CF02292F5D
:1012100030E0983008F052C281E001C0880F9A9502
:10122000EAF78093D1028091D8029091D902019778
:10123000F1F78091D6029091D702892B49F1E09184
:10124000DE01F091DF0182E0EC3BF80709F1309715
:1012500039F0A389B4899C918589809589238C93E1
:101260008091DA028E7F8093DA021092DD01109273
:10127000DC018CEB92E09093DF018093DE01E09142
:10128000CF02F091D00280819091D102892B80838E
:10129000E091F701F091F80182E08083E091F301A1
:1012A000F091F4011082E091F501F091F6018FECDC
:1012B00080831092FF01E091FB01F091FC0186E038
:1012C0008083E091F901F091FA018081806180834F
:1012D000E091F901F091FA01808188608083E091CA
:1012E000F901F091FA01808180688083E091F90131
:1012F000F091FA0180818F7D808361E08CE00E9413
:101300004B0261E08BE00E944B0261E08AE00E94A8
:101310004B0261E089E00E944B0261E08DE00E9497
:101320004B0261E088E00E944B0266E970E08DE0CC
:101330000E947C0266E970E088E00E947C0261E025
:1013400086E00E944B0260E085E00E944B028091A3
:10135000DB028C3008F051C061E087E00E944B0254
:101360008091DB02282F30E0F901EE0FFF1FE20F22
:10137000F31FEC57FD4F9081907C97609083109203
:10138000DC021092DD022CE0622F0E94100C829F82
:10139000B001112430E020E0AB01420F531FFA01ED
:1013A000EE0FFF1FE40FF51FEC57FD4F908196FDE8
:1013B00016C02F5F3F4F2C30310571F781110FC0E0
:1013C0001092800082E0809381001092850010923C
:1013D0008400B19A80916F00826080936F00E091E9
:1013E000DB028E2F90E0FC01EE0FFF1FE80FF91FCC
:1013F000EC57FD4F80818064808360ED77E080E072
:1014000090E00E94FE020E94E10364E670E080E04A
:1014100090E00E94FE020E94E10364E670E080E03A
:1014200090E00E94FE020E94E10364E670E080E02A
:1014300090E00E94FE020E94E103092E000CAA0B1C
:10144000BB0B8093E0019093E101A093E201B09384
:10145000E30164E670E080E090E00E94FE02C0E0FC
:10146000D0E001E010E08CEB92E00E94A503892B14
:1014700009F419C18CEB92E00E94BD038093E60150
:1014800083E491E00E94A5046091E60187EE91E07B
:101490000E94920184E291E00E94A5048091E601FD
:1014A000863409F018C18DE491E00E94F604109290
:1014B000E5011092E401C090E401D090E5010D2C0B
:1014C000000CEE08FF084AE0C701B601F7FE0DC0A8
:1014D0006DE287EE91E00E94920166277727CB01AB
:1014E0006C197D098E099F094AE00E94B20484E2CA
:1014F00091E00E94A5048091E4019091E501892B7F
:10150000D9F48CEB92E00E94BD036091E60187EE76
:1015100091E00E94920184E291E00E94A5048091F2
:10152000E6018C3409F4F1C00CF0E1C0823409F416
:10153000E9C0863409F4E3C08091E4019091E501AB
:10154000019709F0B0C085E791E00E94F60462E3DC
:1015500070E080E090E00E94FE028091E0019091B6
:10156000E101A091E201B091E3018E97A105B105DF
:101570000CF0D4C00E9404056CE271E080E090E0C1
:101580000E94FE020E94400560E971E080E090E068
:101590000E94FE020E9404056CE271E080E090E08F
:1015A0000E94FE028EE190E00E948D0064EF71E0E7
:1015B00080E090E00E94FE020E94E10364E670E099
:1015C00080E090E00E94FE0285E590E00E948D00A0
:1015D0006CE271E080E090E00E94FE0286E990E01B
:1015E0000E948D0064EF71E080E090E00E94FE02B6
:1015F0000E94E1037C0164E670E080E090E00E94DC
:10160000FE0285E590E00E948D006CE271E080E0D2
:1016100090E00E94FE02C701FF0CAA0BBB0B409199
:10162000E0015091E1016091E2017091E3014817FE
:1016300059076A077B070CF46EC00E942C050E94B4
:1016400004050E94E103092E000CAA0BBB0B80933A
:10165000E0019093E101A093E201B093E30183E8FC
:1016600091E00E94A504C090E001D090E101E090DB
:10167000E201F090E3014AE0C701B601F7FE0DC0B8
:101680006DE287EE91E00E94920166277727CB01F9
:101690006C197D098E099F094AE00E94B20484E218
:1016A00091E00E94A504209709F4DDCE0E945C0120
:1016B000882309F4D8CE0E940000D5CE9E3040F495
:1016C0002850310981E001C0880F2A95EAF7A9CD99
:1016D0002E503109F7CF8A3409F0EDCE86E691E03D
:1016E0000E94F6041093E5010093E401E4CE8235F4
:1016F00079F0833509F020CF0E9404051DCF0E94A8
:1017000054051ACF0E94400517CF0E94180514CF28
:101710000E942C0511CF0E94180591CF0E945405FC
:1017200090CF86E191E09093BD028093BC028091BE
:10173000DE019091DF018C5B924071F4E091CF0269
:10174000F091D00290818091D1028095892380838D
:101750001092DF011092DE010895052E97FB1EF412
:1017600000940E94C40B57FD07D00E94DF0B07FCBA
:1017700003D04EF40C94C40B5095409530952195B0
:101780003F4F4F4F5F4F08959095809570956195AD
:101790007F4F8F4F9F4F08950E94010CA59F900D82
:1017A000B49F900DA49F800D911D11240895B7FF43
:1017B0000C94CC0B0E94CC0B821B930B0895A1E2DE
:1017C0001A2EAA1BBB1BFD010DC0AA1FBB1FEE1FBB
:1017D000FF1FA217B307E407F50720F0A21BB30B06
:1017E000E40BF50B661F771F881F991F1A9469F782
:1017F00060957095809590959B01AC01BD01CF01DE
:101800000895A29FB001B39FC001A39F700D811DD9
:101810001124911DB29F700D811D1124911D0895F9
:10182000991B79E004C0991F961708F0961B881F32
:101830007A95C9F78095089597FB072E16F40094C2
:1018400007D077FD09D00E94300C07FC05D03EF48C
:10185000909581959F4F0895709561957F4F08955C
:10186000AA1BBB1B51E107C0AA1FBB1FA617B707C6
:1018700010F0A61BB70B881F991F5A95A9F78095E2
:101880009095BC01CD010895EE0FFF1F0590F491D6
:10189000E02D099410E0C2E6D0E004C0FE010E94F1
:1018A000440C2196C336D107C9F7F894FFCF000046
:1018B00000009201F2001F01DF0150012E014201E0
:1018C000000000004903F200DE034803A503BD0346
:1018D00030030D0A0064756E67206C6169007472D4
:1018E00061690070686169006C7569007469656E92
:1018F00000726563656976653A20004D6F64652006
:101900006E6F773A20434F4E54524F4C204D414E0C
:1019100055414C004D6F6465206E6F773A204155FC
:10192000544F006175746F2061766F6964696E67EA
:0C1930000044697374616E636520000060
:107E0000112484B714BE81FFF0D085E080938100F7
:107E100082E08093C00088E18093C10086E0809377
:107E2000C20080E18093C4008EE0C9D0259A86E02C
:107E300020E33CEF91E0309385002093840096BBD3
:107E4000B09BFECF1D9AA8958150A9F7CC24DD24C4
:107E500088248394B5E0AB2EA1E19A2EF3E0BF2EE7
:107E6000A2D0813461F49FD0082FAFD0023811F036
:107E7000013811F484E001C083E08DD089C08234E0
:107E800011F484E103C0853419F485E0A6D080C0E4
:107E9000853579F488D0E82EFF2485D0082F10E0AE
:107EA000102F00270E291F29000F111F8ED06801E7
:107EB0006FC0863521F484E090D080E0DECF843638
:107EC00009F040C070D06FD0082F6DD080E0C81688
:107ED00080E7D80618F4F601B7BEE895C0E0D1E017
:107EE00062D089930C17E1F7F0E0CF16F0E7DF06D8
:107EF00018F0F601B7BEE89568D007B600FCFDCFD4
:107F0000A601A0E0B1E02C9130E011968C91119780
:107F100090E0982F8827822B932B1296FA010C0160
:107F200087BEE89511244E5F5F4FF1E0A038BF0790
:107F300051F7F601A7BEE89507B600FCFDCF97BE46
:107F4000E89526C08437B1F42ED02DD0F82E2BD052
:107F50003CD0F601EF2C8F010F5F1F4F84911BD097
:107F6000EA94F801C1F70894C11CD11CFA94CF0C13
:107F7000D11C0EC0853739F428D08EE10CD085E9AC
:107F80000AD08FE07ACF813511F488E018D01DD067
:107F900080E101D065CF982F8091C00085FFFCCF94
:107FA0009093C60008958091C00087FFFCCF809118
:107FB000C00084FD01C0A8958091C6000895E0E648
:107FC000F0E098E1908380830895EDDF803219F02E
:107FD00088E0F5DFFFCF84E1DECF1F93182FE3DFCA
:107FE0001150E9F7F2DF1F91089580E0E8DFEE27F6
:047FF000FF270994CA
:027FFE00040479
:00000001FF
