:020000040000FA
:100000000C9463000C948B000C948B000C941D07D3
:100010000C941D070C941D070C948B000C948B0002
:100020000C948B000C948B000C948B000C94610648
:100030000C948B000C948B000C948B000C948B0014
:100040000C9417060C948B000C94E5050C94BF05DA
:100050000C948B000C948B000C948B000C948B00F4
:100060000C948B000C948B000000000024002700EF
:100070002A0000000008000201000003040700003D
:1000800000000000000000000000230026002900FE
:1000900000000000250028002B00040404040404D0
:1000A0000404020202020202030303030303010227
:1000B00004081020408001020408102001020408F6
:1000C0001020DA07870B11241FBECFEFD8E0DEBF68
:1000D000CDBF11E0A0E0B1E0E2E1FDE102C005909A
:1000E0000D92A03BB107D9F722E0A0EBB1E001C02F
:1000F0001D92A13FB207E1F710E0C2E6D0E004C0D4
:100100002197FE010E94760EC136D107C9F70E94E1
:10011000A4080C947C0E0C9400008F929F92AF92D6
:10012000BF92FF920F931F93CF93DF93F090EE0255
:100130002BE02F1508F44CC02091F00208E512E0E6
:10014000021B110927FD1395000F111F000F111F2E
:100150002091EF02C8E8D0E0C21BD10927FDD3955A
:10016000CC0FDD1FCC0FDD1F4E010D2E000CAA0899
:10017000BB089801012E000C440B550B28193909B6
:100180004A095B09DC010E94CD0B24EB30E040E022
:1001900050E00E94A30B820E931EA41EB51E8C1667
:1001A0009D062CF0E801801691060CF4E4012297DC
:1001B000CC0FDD1F2FB7F8948F2D90E0FC01EE0FD0
:1001C000FF1FE80FF91FE655FD4FD283C1832FBFF4
:1001D000DF91CF911F910F91FF90BF90AF909F90B3
:1001E0008F900895AF92BF92CF92DF92EF92FF92DD
:1001F0000F931F93CF93DF936C017B018B01040F4F
:10020000151FEB015E01AE18BF08C017D10759F0EA
:100210006991D601ED91FC910190F081E02DC6012C
:100220000995892B79F7C501DF91CF911F910F9126
:10023000FF90EF90DF90CF90BF90AF900895FC01BA
:10024000538D448D252F30E0842F90E0821B930B3B
:10025000541710F0CF96089501970895FC01918DE1
:10026000828D981761F0A28DAE0FBF2FB11D5D96E4
:100270008C91928D9F5F9F73928F90E008958FEF86
:100280009FEF0895FC01918D828D981731F0828D3A
:10029000E80FF11D858D90E008958FEF9FEF089591
:1002A000FC01918D228D892F90E0805C9F4F821BF5
:1002B00091098F73992708958DE092E00E94500173
:1002C00021E0892B09F420E0822F089580E090E05E
:1002D000892B29F00E945C0181110C940000089583
:1002E000FC01A48DA80FB92FB11DA35ABF4F2C91AB
:1002F000848D90E001968F739927848FA689B789A2
:100300002C93A089B1898C91837080648C93938D98
:10031000848D981306C00288F389E02D80818F7D3B
:1003200080830895EF92FF920F931F93CF93DF93F3
:10033000EC0181E0888F9B8D8C8D98131AC0E88921
:10034000F989808185FF15C09FB7F894EE89FF89F0
:100350006083E889F98980818370806480839FBF8E
:1003600081E090E0DF91CF911F910F91FF90EF908E
:100370000895F62E0B8D10E00F5F1F4F0F7311279E
:10038000E02E8C8D8E110CC00FB607FCFACFE889D9
:10039000F989808185FFF5CFCE010E947001F1CFF0
:1003A000EB8DEC0FFD2FF11DE35AFF4FF0829FB74D
:1003B000F8940B8FEA89FB8980818062CFCFCF933D
:1003C000DF93EC01888D8823B9F0AA89BB89E8897D
:1003D000F9898C9185FD03C0808186FD0DC00FB623
:1003E00007FCF7CF8C9185FFF2CF808185FFEDCFA1
:1003F000CE010E947001E9CFDF91CF91089590E086
:10040000FC01EE58FF4F2491FC01E255FF4F34915F
:10041000FC01E656FF4FE491EE23C9F0222339F0A8
:10042000233001F1A8F4213019F1223029F1F0E054
:10043000EE0FFF1FE057FF4FA591B4918FB7F894CF
:10044000EC91611126C030953E233C938FBF0895F7
:100450002730A9F02830C9F0243049F78091800076
:100460008F7D03C0809180008F7780938000DFCFE5
:1004700084B58F7784BDDBCF84B58F7DFBCF809132
:10048000B0008F778093B000D2CF8091B0008F7D85
:10049000F9CF3E2BDACFCF93DF9390E0FC01E2550A
:1004A000FF4F249186569F4FFC0184918823D1F001
:1004B00090E0880F991FFC01E859FF4FA591B49176
:1004C000FC01E057FF4FC591D49161110EC09FB759
:1004D000F8948C91E22FE0958E238C932881E2236F
:1004E000E8839FBFDF91CF9108958FB7F894EC9187
:1004F000E22BEC938FBFF6CF1F93CF93DF93182F90
:10050000EB0161E00E944B02209739F460E0812FFB
:10051000DF91CF911F910C94FF01CF3FD10511F4D2
:1005200061E0F5CFE12FF0E0EE58FF4FE491E330CA
:1005300031F140F4E130B1F0E230E1F0C038D10502
:100540007CF7E4CFE73029F1E83059F1E430B1F736
:1005500080918000806280938000D0938B00C09354
:100560008A0004C084B5806884BDC7BDDF91CF9187
:100570001F91089584B5806284BDC8BDF7CF809176
:100580008000806880938000D0938900C0938800A9
:10059000EDCF8091B00080688093B000C093B3002D
:1005A000E5CF8091B00080628093B000C093B4002A
:1005B000DDCF3FB7F8948091F2019091F301A091C3
:1005C000F401B091F50126B5A89B05C02F3F19F0A5
:1005D0000196A11DB11D3FBFBA2FA92F982F8827C3
:1005E000BC01CD01620F711D811D911D42E0660F9E
:1005F000771F881F991F4A95D1F708958F929F9270
:10060000AF92BF92CF92DF92EF92FF924B015C01CB
:100610000E94D9026B017C010E94D9026C197D09EC
:100620008E099F09683E734081059105A8F321E07A
:10063000821A9108A108B10888EEC80E83E0D81E7E
:10064000E11CF11C81149104A104B10429F7FF906D
:10065000EF90DF90CF90BF90AF909F908F900895D4
:100660002091F8013091F9012817390771F4909120
:10067000F6018091F701981741F0E091F601F0E062
:10068000E055FE4F808190E008958FEF9FEF089531
:100690000895EF92FF920F931F93CF93DF93DC01A6
:1006A0005C96ED90FC905D97E114F10479F481E0A3
:1006B00090E013969C938E93129790E080E0DF91E8
:1006C000CF911F910F91FF90EF9008955196ED916A
:1006D000FC91529750968C915097982F90950FB708
:1006E0005E962C915E97122F127021FD6095F89402
:1006F0002081112319F1282B2083E7012197F1F79D
:1007000028E0462F50E0308160FF1AC0382B30833C
:10071000E7012197F1F7BA0175956795215089F79F
:10072000112381F08081892380830FBF5C968D9196
:100730009C910197F1F781E090E0C1CF2923DCCFB4
:100740003923E5CF9081892BEFCF2091F8013091AB
:10075000F9012817390771F48091F7012091F6010A
:1007600090E0805C9F4F821B910960E470E00E94E2
:100770004E0E089590E080E008952091F8013091A8
:10078000F90128173907B9F49091F6018091F70122
:10079000981789F0E091F601F0E0E055FE4F808176
:1007A0002091F60130E02F5F3F4F2F7333272093C6
:1007B000F60190E008958FEF9FEF089590E080E0BC
:1007C0000895FC0101900020E9F73197AF01481B23
:1007D000590BBC018DE092E00C94F2008F929F9235
:1007E000AF92BF920F931F93CF93DF93CDB7DEB736
:1007F000A1970FB6F894DEBF0FBECDBF19A242304D
:1008000008F44AE08E010F5D1F4F842E912CB12C0D
:10081000A12CA50194010E94D50BE62FB901CA01B4
:10082000EA30F4F4E05DD801EE938D01232B242B04
:10083000252B79F790E080E0109719F0CD010E9408
:10084000E103A1960FB6F894DEBF0FBECDBFDF91D6
:10085000CF911F910F91BF90AF909F908F9008956F
:10086000E95CE1CFCF93DF930E94E103EC0184E2E6
:1008700091E00E94E1038C0F9D1FDF91CF910895BD
:1008800087E291E00E94320460E08CE00E94FF0168
:1008900060E08BE00E94FF0160E08AE00E94FF01BF
:1008A00060E089E00C94FF0180E391E00E94320453
:1008B00060E08CE00E94FF0161E08BE00E94FF019C
:1008C00061E08AE00E94FF0160E089E00C94FF0192
:1008D00085E391E00E94320461E08CE00E94FF0118
:1008E00060E08BE00E94FF0160E08AE00E94FF016F
:1008F00061E089E00C94FF018AE391E00E943204F8
:1009000060E08CE00E94FF0161E08BE00E94FF014B
:1009100060E08AE00E94FF0161E089E00C94FF0141
:100920008EE391E00E94320461E08CE00E94FF01BE
:1009300060E08BE00E94FF0161E08AE00E94FF011D
:1009400060E089E00C94FF01CF93DF93682F8DE086
:1009500092E00E949201EC0184E291E00E94E103A6
:100960008C0F9D1FDF91CF9108958F929F92AF9230
:10097000BF92CF92DF92EF92FF920F931F9360E0AE
:1009800086E00E94FF0183E090E00197F1F761E0CB
:1009900086E00E94FF0183E290E00197F1F760E0BA
:1009A00086E00E94FF01E3EBF0E06491EFE9F0E004
:1009B000E491F0E0EE0FFF1FEA57FF4F859194910D
:1009C00000E412E42FE030E0462F0E949507611505
:1009D00071058105910529F06F5F7F4F8F4F9F4F04
:1009E0009F700E94190D20E030E040E05FE30E941C
:1009F000D00D27EC3BE44BEE51E40E94780C609361
:100A0000060270930702809308029093090283E420
:100A100091E00E94E103C0900602D0900702E090AE
:100A20000802F0900902A7019601C701B6010E94D1
:100A30003D0E882391F08EE491E00E94E10384E270
:100A400091E01F910F91FF90EF90DF90CF90BF90BA
:100A5000AF909F908F900C94E10346015701E8946A
:100A6000B7F82FEF3FEF4FE75FE7C501B4010E94F2
:100A70003D0E81110DC02FEF3FEF4FE75FE7C5013E
:100A8000B4010E94730C18161CF482E591E0D5CFD6
:100A90002FEF3FEF4FE75FE4C701B6010E94CB0D98
:100AA00018161CF486E591E0C8CF2FEF3FEF4FE713
:100AB0005FECC701B6010E94730C87FDF3CF20E005
:100AC00030E0A901C701B6010E94730C87FF09C07D
:100AD0006DE28DE092E00E949201F7FAF094F7F84F
:100AE000F0942AE037ED43EA5BE3C701B6010E94C8
:100AF000070C4B015C010E94EA0C6B017C010E9417
:100B0000190D9B01AC01C501B4010E94060C4B01FB
:100B10005C014AE0C701B6010E94EE036EE28DE07F
:100B200092E00E94920120E030E040E251E4C501F1
:100B3000B4010E94D00D4B015C010E94EA0C6B01D4
:100B4000F12CE12C4AE0C701B6010E94EE03C70177
:100B5000B6010E94190D9B01AC01C501B4010E94B0
:100B6000060C20E030E040E251E40E94D00D0E94EB
:100B7000EA0C90E080E04AE00E94EE0360CF1F9212
:100B80000F920FB60F9211242F933F934F935F93C1
:100B90006F937F938F939F93AF93BF93EF93FF9345
:100BA0008DE092E00E947001FF91EF91BF91AF91B3
:100BB0009F918F917F916F915F914F913F912F9175
:100BC0000F900FBE0F901F9018951F920F920FB6A7
:100BD0000F9211242F938F939F93EF93FF93E091A4
:100BE0001D02F0911E028081E0912302F091240207
:100BF00082FD1BC09081809126028F5F8F732091B0
:100C00002702821741F0E0912602F0E0E35FFD4FFA
:100C1000958F80932602FF91EF919F918F912F9155
:100C20000F900FBE0F901F9018958081F4CF1F92E8
:100C30000F920FB60F9211242F933F938F939F9390
:100C4000AF93BF938091FA019091FB01A091FC01B9
:100C5000B091FD013091F10123E0230F2D3758F5BC
:100C60000196A11DB11D2093F1018093FA0190938B
:100C7000FB01A093FC01B093FD018091F2019091E2
:100C8000F301A091F401B091F5010196A11DB11DF0
:100C90008093F2019093F301A093F401B093F501D6
:100CA000BF91AF919F918F913F912F910F900FBE68
:100CB0000F901F90189526E8230F0296A11DB11DD5
:100CC000D2CF1F920F920FB60F9211242F933F9302
:100CD0004F935F936F937F938F939F93AF93BF9344
:100CE000CF93DF93EF93FF938091F001C091CE02F9
:100CF000D0E087FF24C0109285001092840080917C
:100D0000F0018F5F8093F0018091F001082E000CBC
:100D1000990B8C179D0724F48091F0018C30C4F15D
:100D20008091840090918500049680349C4908F459
:100D30007AC08091840090918500049676C080915D
:100D4000F001082E000C990B8C179D07C4F6E0915A
:100D5000F0018E2FEE0F990BFC01EE0FFF1FE80F35
:100D6000F91FE655FD4F808186FFC9CFE091F00164
:100D70008E2FEE0F990BFC01EE0FFF1FE80FF91FEE
:100D8000E655FD4F808160E08F730E94FF01B7CF71
:100D90002091840030918500E091F0018E2FEE0FBC
:100DA000990BFC01EE0FFF1FE80FF91FE655FD4FF1
:100DB00081819281820F931F909389008093880094
:100DC000E091F0018E2FEE0F990BFC01EE0FFF1F4B
:100DD000E80FF91FE655FD4F808186FF11C0E091B5
:100DE000F0018E2FEE0F990BFC01EE0FFF1FE80FA5
:100DF000F91FE655FD4F808161E08F730E94FF016E
:100E0000FF91EF91DF91CF91BF91AF919F918F9122
:100E10007F916F915F914F913F912F910F900FBEF6
:100E20000F901F90189580E49CE99093890080931F
:100E300088008FEF8093F001E3CF1F920F920FB6DF
:100E40000F9211242F933F934F935F936F937F9350
:100E50008F939F93AF93BF93EF93FF93E091F8012C
:100E6000F091F901309749F0A685B7858585968D73
:100E700091FF14C09C918923A1F4FF91EF91BF9140
:100E8000AF919F918F917F916F915F914F913F9122
:100E90002F910F900FBE0F901F9018959C91892352
:100EA00061F7A389B4899C918589809589238C9366
:100EB000868997890197F1F7608D718DA685B78531
:100EC000558538E020E0CB010197F1F7822F90E0C3
:100ED00095958795282F4C91452309F0206831502E
:100EE00091F7868D81FD20958091F70190E0019624
:100EF0008F7399273091F601381799F0A091F70177
:100F0000B0E0A055BE4F2C938093F701828D938D56
:100F10000197F1F7A389B4898C919589892B8C93DA
:100F2000ACCF868D8160868FF1CFCF92DF92EF922A
:100F3000FF920F931F93E82FF92F05C0015011095D
:100F40002109310961F1908196239417B9F305C005
:100F5000015011092109310911F19081962394134F
:100F6000F7CFC12CD12CE12CF12C0AC08FEFC81A7D
:100F7000D80AE80AF80A0C151D052E053F0579F078
:100F800080818623841791F36C2D7D2D8E2D9F2DCE
:100F90001F910F91FF90EF90DF90CF90089560E048
:100FA00070E080E090E01F910F91FF90EF90DF9054
:100FB000CF9008951092100210920F0288EE93E0E5
:100FC000A0E0B0E08093110290931202A09313026C
:100FD000B093140284E091E090930E0280930D028E
:100FE00085EC90E090931A028093190284EC90E0D3
:100FF00090931C0280931B0280EC90E090931E0261
:1010000080931D0281EC90E09093200280931F0258
:1010100082EC90E0909322028093210286EC90E093
:1010200090932402809323021092260210922702AA
:1010300010922802109229028091CE028C3008F082
:101040007FC091E0980F9093CE028093EE0290E0E3
:10105000FC01EE0FFF1FE80FF91FE655FD4F88EB6F
:101060009BE0928381831092D2021092D10288EE8B
:1010700093E0A0E0B0E08093D3029093D402A093D9
:10108000D502B093D60286E191E09093D00280938E
:10109000CF021092E6021092E5021092E80210923E
:1010A000E7021092EA021092E9021092EC0210920A
:1010B000EB026091ED026E7F6D7F6093ED026695AD
:1010C000617081E0682783E00E94FF0161E083E0B6
:1010D0000E944B02E1EBF0E0E491E093DF02EDE9E6
:1010E000F0E0E491F0E0EE0FFF1FE057FF4F859135
:1010F00094919093E1028093E00260E084E00E948A
:101100004B028091ED0281FD04C061E084E00E9409
:10111000FF0184E08093DB02E2EBF0E0E491E093F6
:10112000DC02EEE9F0E0E491F0E0EE0FFF1FEA5799
:10113000FF4F859194919093DE028093DD02089594
:101140008FEF8093EE028FCF789484B5826084BD58
:1011500084B5816084BD85B5826085BD85B58160BB
:1011600085BD80916E00816080936E001092810039
:1011700080918100826080938100809181008160F4
:1011800080938100809180008160809380008091B5
:10119000B10084608093B1008091B0008160809341
:1011A000B00080917A00846080937A0080917A0008
:1011B000826080937A0080917A00816080937A00C7
:1011C00080917A00806880937A001092C10010921A
:1011D000EA021092E9021092E8021092E7021092DD
:1011E000E6021092E5028DE991E09093EC02809383
:1011F000EB029091DB02963108F047C02DEB30E016
:101200003093E6022093E5022BE931E03093E802C7
:101210002093E7022CE231E03093EA022093E902C6
:101220002091680084E0983048F031E09E3008F466
:1012300030E081E001C0880F3A95EAF7822B809375
:1012400068002DE630E0983050F02BE630E09E301C
:1012500030F02CE630E0963110F030E020E03093B2
:10126000E3022093E202292F30E0983008F089C190
:1012700081E001C0880F9A95EAF78093E40280919B
:10128000EB029091EC020197F1F78091E9029091C5
:10129000EA02892B49F1E091F801F091F90182E02D
:1012A000EF3CF80709F1309739F0A389B4899C9194
:1012B0008589809589238C938091ED028E7F809320
:1012C000ED021092F7011092F6018FEC92E09093EC
:1012D000F9018093F801E091E202F091E30280814C
:1012E0009091E402892B8083E0911D02F0911E020F
:1012F00082E08083E0911902F0911A021082E0915D
:101300001B02F0911C028FEC808310922502E09169
:101310002102F091220286E08083E0911F02F09189
:101320002002808180618083E0911F02F091200281
:10133000808188608083E0911F02F091200280818B
:1013400080688083E0911F02F091200280818F7D70
:10135000808361E08CE00E944B0261E08BE00E94A0
:101360004B0261E08AE00E944B0261E089E00E944A
:101370004B0261E08DE00E944B0261E088E00E9438
:101380004B0266E970E08DE00E947C0266E970E045
:1013900088E00E947C0261E086E00E944B0260E0EF
:1013A00085E00E944B028FB7F8944091FA0150916A
:1013B000FB016091FC017091FD018FBF8091EE02F5
:1013C0008C3008F051C061E087E00E944B028091B0
:1013D000EE02282F30E0F901EE0FFF1FE20FF31F9E
:1013E000E655FD4F9081907C976090831092EF02BC
:1013F0001092F0022CE0622F0E94420E829FB001F8
:10140000112430E020E0AB01420F531FFA01EE0F30
:10141000FF1FE40FF51FE655FD4F908196FD16C0A6
:101420002F5F3F4F2C30310571F781110FC01092A3
:10143000800082E0809381001092850010928400E9
:10144000B19A80916F00826080936F00E091EE020C
:101450008E2F90E0FC01EE0FFF1FE80FF91FE655FD
:10146000FD4F808180648083C0E0D0E001E010E027
:101470008FEC92E00E94A503892BD9F18FEC92E0CA
:101480000E94BD0380930C028AE591E00E94E10373
:1014900080910C020E94A40480910C02863409F011
:1014A0007DC084E691E00E94320410920B021092FB
:1014B0000A02C0900A02D0900B020D2C000CEE081C
:1014C000FF084AE0C701B601F7FE0DC06DE28DE0EE
:1014D00092E00E94920166277727CB016C197D0963
:1014E0008E099F094AE00E94EE0384E291E00E9487
:1014F000E10380910A0290910B02892BA9F48FECF1
:1015000092E00E94BD0380910C020E94A40480918D
:101510000C028C3409F45CC00CF04CC0823409F429
:1015200054C0863409F44EC080910A0290910B0297
:101530000197E1F48CE891E00E9432040E94B50426
:1015400020E030E048EC51E460910602709107021F
:1015500080910802909109020E94CB0D1816F4F5B3
:101560000E9490048CE991E00E943204209709F4D3
:101570007FCF0E945C01882309F47ACF0E9400008B
:1015800077CF9E3040F42850310981E001C0880FA8
:101590002A95EAF772CE2E503109F7CF8A3409F036
:1015A00088CF8DE791E00E94320410930B020093E4
:1015B0000A027FCF823579F0833509F0B5CF0E94DA
:1015C0004004B2CF0E949004AFCF0E947C04ACCF05
:1015D0000E945404A9CF0E946804A6CF0E94400430
:1015E00082E390E00E948D0068EC70E080E090E083
:1015F0000E94FE020E94B5048AE590E00E948D00E0
:101600008091060290910702A0910802B091090210
:101610008093020290930302A0930402B093050208
:1016200086E990E00E948D0068EC70E080E090E038
:101630000E94FE020E94B5048AE590E00E948D009F
:10164000C0900602D0900702E0900802F0900902D4
:10165000C092FE01D092FF01E0920002F0920102DE
:101660008090020290900302A0900402B0900502C4
:1016700020E030E048EC51E4C501B4010E94730C55
:1016800087FF17C020E030E048EC51E4C701B60105
:101690000E94730C87FF0DC00E947C0481EA91E0D8
:1016A0000E9432046CE271E080E090E00E94FE0251
:1016B0005DCFA5019401C701B6010E94CB0D18169C
:1016C00064F40E94680485EA91E00E9432046CE2AE
:1016D00071E080E090E00E94FE022091FE013091D6
:1016E000FF0140910002509101026091020270914D
:1016F000030280910402909105020E94CB0D1816FE
:101700000CF034CF0E9454048AEA91E0C9CF86E1FC
:1017100091E09093D0028093CF028091F801909154
:10172000F9018F5C924071F4E091E202F091E302E2
:1017300090818091E4028095892380831092F90141
:101740001092F8010895052E97FB1EF400940E9454
:10175000BA0B57FD07D00E94D50B07FC03D04EF4FF
:101760000C94BA0B50954095309521953F4F4F4FB3
:101770005F4F089590958095709561957F4F8F4F3D
:101780009F4F08950E94F70BA59F900DB49F900D59
:10179000A49F800D911D11240895B7FF0C94C20BD6
:1017A0000E94C20B821B930B0895A1E21A2EAA1B62
:1017B000BB1BFD010DC0AA1FBB1FEE1FFF1FA21701
:1017C000B307E407F50720F0A21BB30BE40BF50BFE
:1017D000661F771F881F991F1A9469F76095709587
:1017E000809590959B01AC01BD01CF010895A29F0A
:1017F000B001B39FC001A39F700D811D1124911DE5
:10180000B29F700D811D1124911D08955058BB2762
:10181000AA270E941E0C0C94910D0E94830D38F093
:101820000E948A0D20F039F49F3F19F426F40C949D
:10183000800D0EF4E095E7FB0C947A0DE92F0E94E1
:10184000A20D58F3BA17620773078407950720F0B3
:1018500079F4A6F50C94C40D0EF4E0950B2EBA2F76
:10186000A02D0B01B90190010C01CA01A0011124A6
:10187000FF27591B99F0593F50F4503E68F11A1652
:10188000F040A22F232F342F4427585FF3CF4695E3
:1018900037952795A795F0405395C9F77EF41F1605
:1018A000BA0B620B730B840BBAF09150A1F0FF0FCF
:1018B000BB1F661F771F881FC2F70EC0BA0F621FBB
:1018C000731F841F48F4879577956795B795F795AB
:1018D0009E3F08F0B0CF9395880F08F09927EE0F40
:1018E0009795879508950E94560D08F481E0089514
:1018F0000E948C0C0C94910D0E948A0D58F00E944D
:10190000830D40F029F45F3F29F00C947A0D5111BA
:101910000C94C50D0C94800D0E94A20D68F39923C0
:10192000B1F3552391F3951B550BBB27AA276217DB
:101930007307840738F09F5F5F4F220F331F441FE8
:10194000AA1FA9F335D00E2E3AF0E0E832D091501C
:101950005040E695001CCAF72BD0FE2F29D0660F09
:10196000771F881FBB1F261737074807AB07B0E84C
:1019700009F0BB0B802DBF01FF2793585F4F3AF052
:101980009E3F510578F00C947A0D0C94C50D5F3F85
:10199000E4F3983ED4F3869577956795B795F795D8
:1019A0009F5FC9F7880F911D9695879597F90895C0
:1019B000E1E0660F771F881FBB1F6217730784075C
:1019C000BA0720F0621B730B840BBA0BEE1F88F76B
:1019D000E09508950E94AA0D88F09F5798F0B92FBE
:1019E0009927B751B0F0E1F0660F771F881F991F54
:1019F0001AF0BA95C9F714C0B13091F00E94C40D25
:101A0000B1E008950C94C40D672F782F8827B85F34
:101A100039F0B93FCCF3869577956795B395D9F7AB
:101A20003EF490958095709561957F4F8F4F9F4FB5
:101A30000895E89409C097FB3EF4909580957095C1
:101A400061957F4F8F4F9F4F9923A9F0F92F96E90A
:101A5000BB279395F695879577956795B795F1117F
:101A6000F8CFFAF4BB0F11F460FF1BC06F5F7F4F1C
:101A70008F4F9F4F16C0882311F096E911C077232E
:101A800021F09EE8872F762F05C0662371F096E837
:101A9000862F70E060E02AF09A95660F771F881F06
:101AA000DAF7880F9695879597F90895990F0008AA
:101AB000550FAA0BE0E8FEEF16161706E807F90720
:101AC000C0F012161306E407F50798F0621B730BBB
:101AD000840B950B39F40A2661F0232B242B252B3C
:101AE00021F408950A2609F4A140A6958FEF811DDF
:101AF000811D089597F99F6780E870E060E0089580
:101B00009FEF80EC089500240A9416161706180615
:101B10000906089500240A941216130614060506F1
:101B20000895092E0394000C11F4882352F0BB0F82
:101B300040F4BF2B11F460FF04C06F5F7F4F8F4FE5
:101B40009F4F089557FD9058440F551F59F05F3F20
:101B500071F04795880F97FB991F61F09F3F79F0CF
:101B600087950895121613061406551FF2CF469551
:101B7000F1DF08C0161617061806991FF1CF8695D3
:101B80007105610508940895E894BB2766277727B7
:101B9000CB0197F908950E94560D08F48FEF089530
:101BA0000E94E30D0C94910D0E94830D38F00E9469
:101BB0008A0D20F0952311F00C947A0D0C94800D71
:101BC00011240C94C50D0E94A20D70F3959FC1F3D2
:101BD000950F50E0551F629FF001729FBB27F00DDB
:101BE000B11D639FAA27F00DB11DAA1F649F662730
:101BF000B00DA11D661F829F2227B00DA11D621F7F
:101C0000739FB00DA11D621F839FA00D611D221F38
:101C1000749F3327A00D611D231F849F600D211D1C
:101C2000822F762F6A2F11249F5750409AF0F1F09F
:101C300088234AF0EE0FFF1FBB1F661F771F881F08
:101C400091505040A9F79E3F510580F00C947A0DB9
:101C50000C94C50D5F3FE4F3983ED4F386957795D9
:101C60006795B795F795E7959F5FC1F7FE2B880FAE
:101C7000911D9695879597F908950E94560D880BAA
:101C8000990B0895991B79E004C0991F961708F0E5
:101C9000961B881F7A95C9F78095089597FB072EA4
:101CA00016F4009407D077FD09D00E94620E07FC5D
:101CB00005D03EF4909581959F4F0895709561955C
:101CC0007F4F0895AA1BBB1B51E107C0AA1FBB1F72
:101CD000A617B70710F0A61BB70B881F991F5A95B8
:101CE000A9F780959095BC01CD010895EE0FFF1FD7
:101CF0000590F491E02D099410E0C2E6D0E004C014
:101D0000FE010E94760E2196C336D107C9F7F894DA
:101D1000FFCF000000009201F2001F01DF0150011F
:101D20002E014201000000004903F200DE034803D7
:101D3000A503BD0330030D0A0064756E67206C6156
:101D40006900747261690070686169006C7569008E
:101D50007469656E0044697374616E63653A20004E
:101D60006E616E00696E66006F766600726563650F
:101D70006976653A20004D6F6465206E6F773A2072
:101D8000434F4E54524F4C204D414E55414C004D07
:101D90006F6465206E6F773A204155544F0061752E
:101DA000746F2061766F69642E2E2E2E2E0054697A
:101DB000656E004C75690050686169005472616914
:021DC000000021
:107E0000112484B714BE81FFF0D085E080938100F7
:107E100082E08093C00088E18093C10086E0809377
:107E2000C20080E18093C4008EE0C9D0259A86E02C
:107E300020E33CEF91E0309385002093840096BBD3
:107E4000B09BFECF1D9AA8958150A9F7CC24DD24C4
:107E500088248394B5E0AB2EA1E19A2EF3E0BF2EE7
:107E6000A2D0813461F49FD0082FAFD0023811F036
:107E7000013811F484E001C083E08DD089C08234E0
:107E800011F484E103C0853419F485E0A6D080C0E4
:107E9000853579F488D0E82EFF2485D0082F10E0AE
:107EA000102F00270E291F29000F111F8ED06801E7
:107EB0006FC0863521F484E090D080E0DECF843638
:107EC00009F040C070D06FD0082F6DD080E0C81688
:107ED00080E7D80618F4F601B7BEE895C0E0D1E017
:107EE00062D089930C17E1F7F0E0CF16F0E7DF06D8
:107EF00018F0F601B7BEE89568D007B600FCFDCFD4
:107F0000A601A0E0B1E02C9130E011968C91119780
:107F100090E0982F8827822B932B1296FA010C0160
:107F200087BEE89511244E5F5F4FF1E0A038BF0790
:107F300051F7F601A7BEE89507B600FCFDCF97BE46
:107F4000E89526C08437B1F42ED02DD0F82E2BD052
:107F50003CD0F601EF2C8F010F5F1F4F84911BD097
:107F6000EA94F801C1F70894C11CD11CFA94CF0C13
:107F7000D11C0EC0853739F428D08EE10CD085E9AC
:107F80000AD08FE07ACF813511F488E018D01DD067
:107F900080E101D065CF982F8091C00085FFFCCF94
:107FA0009093C60008958091C00087FFFCCF809118
:107FB000C00084FD01C0A8958091C6000895E0E648
:107FC000F0E098E1908380830895EDDF803219F02E
:107FD00088E0F5DFFFCF84E1DECF1F93182FE3DFCA
:107FE0001150E9F7F2DF1F91089580E0E8DFEE27F6
:047FF000FF270994CA
:027FFE00040479
:00000001FF
